S016000050726F6A6563745F7761736865722E737265634E
S11300004CC0000067C0000065C0000063C0000071
S113001061C000005FC000005DC000005BC0000064
S113002059C0000057C0000055C0000053C0000074
S113003051C000004FC000004DC000004BC0000084
S113004049C0000047C0000045C0000043C0000094
S113005041C000003FC000003DC000003BC00000A4
S113006039C0000037C0000035C0000033C00000B4
S113007031C000002FC000002DC000002BC00000C4
S113008029C0000027C0000025C00000ED00F100D9
S1130090F600FA00FE000201060111241FBECFEF94
S11300A0D0E1DEBFCDBF11E0A0E0B1E0ECE3FFE0C2
S11300B000E00BBF02C007900D92AC3DB107D9F729
S11300C021E0ACEDB1E001C01D92AF3EB207E1F713
S11300D0EDD232C795CF8AB3807F8ABB089549B3E6
S11300E021E030E0082E02C0220F331F0A94E2F709
S11300F050E024233523A90102C0559547958A95DC
S1130100E2F7411107C0FB018081813061F4108264
S113011080E00895413049F4FB018081811107C0DA
S113012081E08083089580E0089580E0089580E070
S1130130089563E071E080E0D2CF089562E071E059
S113014081E0CDCF089561E071E082E0C8CF0895E9
S113015060E071E083E0C3CF08958AB3806F8ABB07
S113016008958BB38F708BBB0895DF9A8BB38F7810
S11301708BBB08958BB3806C8BBB8BB38F7C8BBB99
S113018008958BB3806E8BBBDC9808958BB3806F1E
S11301908BBB089582B1886182B9AAE8B0E08C91E2
S11301A088608C93EBE8F0E08081836080838081B9
S11301B0806880838081806280838C9182608C934C
S11301C00895B7DF813029F5CBD146D28730910528
S11301D000F5FC01EA5BFF4FCBC381E090E03FC236
S11301E00895BED182E090E03AC2089583E090E0A1
S11301F036C2089584E090E032C2089585E090E02C
S11302002EC2089584E090E02AC2089580E090E030
S113021026C2089593DF8130B1F4A2D123D2813074
S1130220910549F08230910551F0892B21F581E047
S113023090E01BC2089582E090E017C2089580E028
S113024090E013C208957FDF8130A9F489D10AD2E6
S11302508130910549F08230910551F0892B59F490
S113026082E090E002C2089580E090E0FEC108952B
S113027081E090E0FAC108956BDF813051F570D1CF
S1130280EBD183309105B1F034F48130910551F014
S1130290029761F0089585309105A1F07CF00697EE
S11302A0A9F0089580E090E0DAC1089581E090E03B
S11302B0D6C1089582E090E0D2C1089583E090E031
S11302C0CEC1089580E090E0CAC1089580E090E036
S11302D0C6C10895CF93C82F31DF813059F485E02A
S11302E08C0F90E0C8D1C4D1CB978CF080E090E023
S11302F0C2D10DC028DF813051F48BEF8C0F90E018
S1130300BAD1B6D1CB971CF087E390E0B4D1CF91AA
S11303100895CF93C82F12DF813059F485E08C0FF4
S113032090E0AFD1ABD1CB978CF080E090E0A9D135
S11303300DC009DF813051F48BEF8C0F90E0A1D117
S11303409DD1CB971CF087E390E09BD1CF9108958A
S1130350982F92959F70990F292F220F220F920F99
S11303608F70890F08955BC008950F931F93CF93E7
S1130370DF93CDB7DEB727970FB6F894DEBF0FBE75
S1130380CDBF8C0127E0AE014F5F5F4F60E088E690
S11303905DD08981DDDFF80180838A81D9DFF801AE
S11303A081838B81D5DFF80182838C81D1DFF801D1
S11303B083838D81CDDFF80184838E81C9DFF801C9
S11303C085838F81C5DFF801868327960FB6F8945D
S11303D0DEBF0FBECDBFDF91CF911F910F91089566
S11303E084EA80937400E4E7F0E080818823ECF7EA
S11303F008958093730084E880937400E4E7F0E048
S113040080818823ECF708958093730084E88093B7
S11304107400E4E7F0E080818823ECF7089581B369
S1130420836081BB88E4809370000895CF93DF9349
S1130430D82FC62FD5DF8D2F880FDBDF8C2FE4DF7D
S113044084E980937400DF91CF910895EF92FF9235
S11304500F931F93CF93DF93D82F162FF42E052FCE
S1130460E22EBEDF8D2F880FC4DF812FCDDF84EA1B
S113047080937400E4E7F0E090819923ECF78D2FEA
S1130480880F8160B6DFEE2029F1AF2DB02F20E078
S113049030E04E2D50E041505109E4E7F0E014E81B
S11304A063E770E094EC2417350744F4908380816B
S11304B08823ECF7EB0188818C9307C0108380813B
S11304C08823ECF7EB0188818C932F5F3F4F1196C3
S11304D02E1548F384E980937400DF91CF911F9126
S11304E00F91FF90EF9008956091DC016460609338
S11304F0DC0187E29BDF8FE99FE00197F1F700C001
S113050000006091DC016B7F6093DC0187E28EDF89
S11305108FE99FE00197F1F700C0000008958091F2
S1130520DC0188608093DC010895CF93C82F60912B
S1130530DC016E70807F682B6093DC0187E276DFDC
S1130540D3DF6091DC016F7020E1C29FC0011124F0
S1130550682B6093DC0187E269DFC6DFCF910895E1
S113056081E0E3DF8FE39FE10197F1F700C0000032
S1130570089581706F7090E4899F600D1124862F17
S11305808058D3CF08956091DC016E70807F682B12
S11305906093DC0187E24ADFA7CF089540DF2FEFA5
S11305A089EF90E0215080409040E1F700C00000C6
S11305B080E3E9DF8FE19EE40197F1F700C00000DA
S11305C080E3E1DF9FEF23EC89E0915020408040FD
S11305D0E1F700C0000080E3D6DF88E2D4DF88E2E0
S11305E0A4DF88E0A2DF81E0A0DF86E09EDF97DF62
S11305F08CE09BCF0895CF93C82F6091DC0161609C
S11306006F70807F682B6093DC0187E20FDF6CDF03
S11306106091DC016F7020E1C29FC0011124682B3E
S11306206093DC0187E202DF5FDFCF9108950F93CF
S11306301F93CF93FC018081882351F08F01C0E088
S1130640DADFCF5FF801EC0FF11D8081C817C0F32A
S1130650CF911F910F9108958091E00108958093A7
S1130660E00108958091DF0108958093DF010895EA
S11306708091DE0108958093DE0108958091DD016B
S113068008958093DD010895813021F038F082309F
S113069041F003C029E031E006C008952EE031E0C6
S11306A002C024E031E0822F932F0895CF93DF938B
S11306B0CDB7DEB764970FB6F894DEBF0FBECDBFDB
S11306C00ADD51DE4ADD6ADF65DDE8EEF1E0108225
S11306D01182FE01319684E1DF011D928A95E9F7CA
S11306E06F010F2EF3E2EF2EF1E0FF2EF02D0F2E0F
S11306F0F0E9AF2EF1E0BF2EF02D0E2F1D2D8091CD
S1130700E001811138C05DDD2CDD60E080E031DF87
S113071080E1E3E1F1E0A02FB12F01900D928A95E1
S1130720E1F7802F912F83DF81EE91E01EDE60E000
S113073081E01FDFE1EEF1E080811F928F938181E0
S11307401F928F9382811F928F9384811F928F9324
S113075085811F928F9386811F928F93FF92EF92D0
S1130760DF92CF920ED1802F912F61DF0FB6F894D4
S1130770DEBF0FBECDBF8091E001813009F04EC0D5
S113078020DD7ADD8091DF018130B1F018F0823014
S113079029F135C03FDD60E080E0EBDE80E1EFE38E
S11307A0F1E0A02FB12F01900D928A95E1F7802FEF
S11307B0912F3DDFDADC23C02DDD60E080E0D9DE5F
S11307C080E1EFE4F1E0A02FB12F01900D928A9522
S11307D0E1F7802F912F2BDFCDDC11C01BDD60E012
S11307E080E0C7DE80E1EFE5F1E0A02FB12F0190BA
S11307F00D928A95E1F7802F912F19DFC2DC60E01A
S113080081E0B7DE81E1EFE6F1E0A02FB12F0190A6
S11308100D928A95E1F7802F912F09DF8091E001F5
S1130820823089F5CEDC28DD8091DE0153DD60E085
S113083080E09FDE80E1E0E8F1E0A02FB12F01909D
S11308400D928A95E1F7802F912FF1DE60E081E02F
S113085090DE8091DF0118DF2091DD011F922F933C
S11308602091DE011F922F939F938F93BF92AF929B
S1130870DF92CF9286D0802F912FD9DE0FB6F894D5
S1130880DEBF0FBECDBF8091E001833089F599DCD6
S1130890F3DC8091DD013DDD60E080E06ADE80E133
S11308A0EEE9F1E0A02FB12F01900D928A95E1F7C6
S11308B0802F912FBCDE60E081E05BDE8091DF0160
S11308C0E3DE2091DD011F922F932091DE011F9220
S11308D02F939F938F93BF92AF92DF92CF9251D079
S11308E0802F912FA4DE0FB6F894DEBF0FBECDBFCC
S11308F08091E001843089F464DCBEDC60E080E057
S113090038DE8FE0EEEAF1E0A02FB12F01900D92D6
S11309108A95E1F7802F912F8ADE8091E00185305E
S113092091F44FDCA9DC1DDC60E080E022DE8FE086
S1130930EDEBF1E0A02FB12F01900D928A95E1F734
S1130940802F912F74DE8091E001863009F0D7CE9C
S113095038DC92DC1BDC8FE0ECECF1E0A02FB12F53
S113096001900D928A95E1F7802F912F60DEC7CE1A
S1130970EE0FFF1F0024001C0BBE0790F691E02D24
S113098009940F931F93CF93DF93CDB7DEB72E97C0
S11309900FB6F894DEBF0FBECDBF0D891E8986E069
S11309A08C831A8309838FEF9FE79E838D83AE0127
S11309B0475E5F4F6F89788DCE01019610D0EF812D
S11309C0F885E00FF11F10822E960FB6F894DEBF63
S11309D00FBECDBFDF91CF911F910F9108952F923C
S11309E03F924F925F926F927F928F929F92AF92BB
S11309F0BF92CF92DF92EF92FF920F931F93CF9308
S1130A00DF93CDB7DEB72B970FB6F894DEBF0FBEDA
S1130A10CDBF6C017B018A01FC01178216828381A0
S1130A2081FFBFC1CE0101963C01F6019381F7011C
S1130A3093FD859193FF81917F01882309F4ADC1D2
S1130A40853239F493FD859193FF81917F0185323D
S1130A5021F4B60190E0D6D1E8CF912C212C312C91
S1130A60FFE1F315D8F08B3279F038F4803279F065
S1130A708332A1F4232D20611DC08D3261F08033B7
S1130A8069F4232D216016C0832D8260382EE32D56
S1130A90E4603E2E2AC0F32DF8601DC037FC2DC043
S1130AA020ED280F2A3040F08E32B9F436FC75C19F
S1130AB0232D2064322E19C036FE06C08AE0989E8B
S1130AC0200D1124922E11C0EAE02E9E200D112437
S1130AD0222EF32DF0623F2E08C08C3621F4832D94
S1130AE08068382E02C0883641F4F70193FD859161
S1130AF093FF81917F018111B3CF982F9F7D9554EE
S1130B00933028F40C5F1F4F9FE399830DC0833605
S1130B1031F0833771F0833509F055C020C0F801F6
S1130B20808189830E5F1F4F88248394912C530105
S1130B3012C02801F2E04F0E511CF801A080B180D0
S1130B4036FE03C0692D70E002C06FEF7FEFC50170
S1130B504ED14C018201F32DFF773F2E15C02801A1
S1130B6022E0420E511CF801A080B18036FE03C081
S1130B70692D70E002C06FEF7FEFC5012DD14C01EC
S1130B80F32DF0683F2E820133FC19C0822D90E0D2
S1130B9088169906A0F4B60180E290E033D12A9435
S1130BA0F5CFF50137FC859137FE81915F01B601E0
S1130BB090E028D121102A9421E0821A910881140E
S1130BC0910479F7E1C0843611F0893639F5F801DA
S1130BD037FE07C060817181828193810C5F1F4F52
S1130BE008C060817181072E000C880B990B0E5F81
S1130BF01F4FF32DFF763F2E97FF09C090958095E8
S1130C00709561957F4F8F4F9F4FF0683F2E2AE07C
S1130C1030E0A30133D1882E861844C0853731F4DF
S1130C20232D2F7EB22E2AE030E025C0932D997F0C
S1130C30B92E8F36C1F018F4883579F0AEC08037FC
S1130C4019F0883721F0A9C0E92FE061BE2EB4FE67
S1130C500DC0FB2DF460BF2E09C034FE0AC0292F3D
S1130C602660B22E06C028E030E005C020E130E066
S1130C7002C020E132E0F801B7FE07C06081718153
S1130C80828193810C5F1F4F06C06081718180E077
S1130C9090E00E5F1F4FA301F1D0882E8618FB2D24
S1130CA0FF773F2E36FE0DC0232D2E7FA22E8914F2
S1130CB058F434FE0BC032FC09C0832D8E7EA82E5E
S1130CC005C0B82CA32C03C0B82C01C0B92CA4FEB9
S1130CD00FC0FE01E80DF11D8081803321F49A2DAF
S1130CE0997EA92E09C0A2FE06C0B394B39404C091
S1130CF08A2D867809F0B394A3FC10C0A0FE06C028
S1130D00B21480F4280C922C9B180DC0B21458F421
S1130D10B60180E290E076D0B394F8CFB21418F420
S1130D202B1802C0982C212CA4FE0FC0B60180E31E
S1130D3090E068D0A2FE16C0A1FC03C088E790E052
S1130D4002C088E590E0B6010CC08A2D867851F087
S1130D50A1FE02C08BE201C080E2A7FC8DE2B601D5
S1130D6090E050D0891430F4B60180E390E04AD08A
S1130D709A94F8CF8A94F301E80DF11D8081B601AD
S1130D8090E040D08110F6CF222009F44ECEB60177
S1130D9080E290E037D02A94F7CFF60186819781DC
S1130DA002C08FEF9FEF2B960FB6F894DEBF0FBEF5
S1130DB0CDBFDF91CF911F910F91FF90EF90DF9006
S1130DC0CF90BF90AF909F908F907F906F905F90E7
S1130DD04F903F902F900895FC0105906150704012
S1130DE00110D8F7809590958E0F9F1F0895FC01F0
S1130DF06150704001900110D8F7809590958E0F46
S1130E009F1F08950F931F93CF93DF93FB012381BB
S1130E1021FD03C08FEF9FEF2CC022FF16C0468137
S1130E205781248135814217530744F4A081B1814D
S1130E309D012F5F3F4F318320838C93268137811F
S1130E402F5F3F4F3783268314C08B01EC01FB01D6
S1130E500084F185E02D0995892BE1F6D8011696D9
S1130E608D919C911797019617969C938E93169744
S1130E70CE01DF91CF911F910F910895FA01AA2716
S1130E80283051F1203181F1E8946F936E7F6E5FC9
S1130E907F4F8F4F9F4FAF4FB1E03ED0B4E03CD077
S1130EA0670F781F891F9A1FA11D680F791F8A1F5A
S1130EB0911DA11D6A0F711D811D911DA11D20D0C1
S1130EC009F468943F912AE0269F11243019305D7B
S1130ED03193DEF6CF010895462F4770405D41936C
S1130EE0B3E00FD0C9F7F6CF462F4F70405D4A33B9
S1130EF018F0495D31FD4052419302D0A9F7EACF81
S1130F00B4E0A6959795879577956795BA95C9F7AF
S1130F1000976105710508959B01AC010A2E0694A2
S1130F205795479537952795BA95C9F7620F731F5B
S10F0F30841F951FA01D0895F894FFCFA6
S1130F3C010101016C763300006C763200006C7692
S1130F4C3100004D6F64653A2052454445592020C8
S1130F5C2020002530326425303264253032642D53
S1130F6C253032643A253032643A25303264004DEF
S1130F7C6F64653A20504F574552204C5631004D02
S1130F8C6F64653A20504F574552204C5632004DF1
S1130F9C6F64653A20504F574552204C563300200D
S1130FAC2020202020202020202020202020200051
S1130FBC4D6F64653A20534554204D494E552000DD
S1130FCC25732C20253032643A25303264004D6F61
S1130FDC64653A20534554205345432020004D6FFB
S1130FEC64653A2052554E2020202020004D6F6419
S1130FFC653A2053544F5020202020004D6F6465D7
S10F100C3A20454E442020202020000003
S9030000FC
